:2000000002000375D000740070107430941040057581308013758110800E7430942040052B
:200020007581308003758120740060087820FA760008DAFB740060087810FA760008DAFB8F
:20004000740060087810FA760008DAFB7400600D9000007810FAE493F6A308DAF97400603D
:200060000D9000007810FAE493F6A308DAF978017911905180E849600AE4F0A319B9FFF53A
:200080001880F27A017B1F785079009028091200AD7A007B617851791F9029281200AD9019
:2000A0006FFEA3AE83AF82120000020000EA4B601CE493A3AC83AD8288838982F0A3A883BD
:2000C000A9828C838D821BBBFFE31A80E02274F91226BBD000D0011226E17DE79000021261
:2000E000270EEDF07C0090000312270EECF0A3EDF090000512270EECF0A3EDF0900007125B
:20010000270EECF0A3EDF090000312270EAC83AD821224DD90000712270EAC83AD82122491
:20012000DD90000B12270EAC83AD821224DD90000812270EAC83AD821224DD7C517D1F12C4
:2001400024DD905180E0FCA3E0FD12180275E00A1226BB90000212270EE0905184F09000C5
:200160000712270EE0FCA3E0FD905185ECF0A3EDF090000512270EE0FCA3E0FD905187EC87
:20018000F0A3EDF090000312270EE0FCA3E0FD905189ECF0A3EDF01226F9C001C0007407C6
:2001A0000226BB9051807472F0A3E4F0757F00221201B422C0E0C083C082757D007583722E
:2001C0007400758200F0758201F0758202F0758203F0758204F0758205F0758206F075824E
:2001E00007F0758208F0758209F075820AF075820BF075820CF075820DF075820EF0758273
:200200000FF0D082D083D0E02274FC1226BB90000212270EE4F0A3F090000012270EECF012
:20022000A3ED02026390000012270EE0FAA3E0FB90000212270EE0FCA3E0FD2BF582EC3A9B
:20024000F58312262C8D993099FDC29990000212270EE0FCA3E02401FDEC3400FCEDF01216
:2002600027FCECF090000012270EE0FAA3E0FB90000212270EE0FCA3E0FD2BF582EC3AF55E
:20028000831225E6600302022574040226BB74ED1226BBD000D0011226E190000B12270EE7
:2002A000740AF090000C12270E740DF090000D12270E7445F090000412270EEAF0A3EBF0BC
:2002C00090000212270EECF0A3EDF090000212270EE0B4000280030202EDA3E0B40102804C
:2002E000030202ED90000D12270E7452F090000412270EE0FCA3E0FD1224DD7C517D2B129F
:2003000024DD90000A12270EAC83AD8212041175E0041226BB90000612270EE0C0E090003D
:200320000E12270ED0E0F090000712270EE0C0E090000F12270ED0E0F090000812270EE025
:20034000C0E090001012270ED0E0F090000912270EE0C0E090001112270ED0E0F0900012EC
:2003600012270E740AF090001312270E740DF090001412270EE4F090000B12270EAC83ADF0
:20038000821202091226F9C001C00074130226BBD000D0011226E1905182E0FCA3E0FDEC3D
:2003A00090518220E7030203BCE0FCA3E0FDE4C39DFBE49CFA7C007D000203C5E0FAA3E0DA
:2003C000FB7C007D0112028E1226F9C001C00022C0D0C0E030983385997EE57EB45E06125E
:2003E00001B402040AB40A06757F0102040AB40D06757F0102040AC083C082758372857DB2
:1104000082E57EF0D082D083057DC298D0E0D0D03213
:11292800256320257520257520257500253034580007
:2004110074F81226BBD000D0011226E190000812270EECF0A3EDF090000812270EE0FCA319
:20043100E0FD90000212270EECF0A3EDF090000412270EE4F0A3F090000A12270EAC83E562
:20045100822402FDEC3400FC90000612270EECF0A3EDF090000612270EAC83AD821224DD43
:2004710090000C12270EE0FAA3E0FB90000412270EAC83AD821204CC75E0021226BB7D004E
:2004910090000212270EAA83AB828A838B8212255912268C90000812270EE0FCA3E0FD90DF
:1B04B100000212270EE0FAA3E0C39DFBEA9CFA1226F9C001C00074080226BB9E
:1E2809000001000A006403E82710000100100100100000010008004002001000800023
:2004CC0074EF1226BBD000D0011226E190000E12270EEAF0A3EBF090000A12270EECF0A363
:2004EC00EDF090000612270EE4F0A3F0FCFD0217BD90001212270EE0B4250280030205F8DA
:20050C0090000C12270EE4F0A3F0F508F50990000E12270E1225591225E624E07003020679
:20052C006B24FD700302067524F8700302067024FE700302066624FD700302067AE5092005
:20054C00E1030205545309FEE50920E30302055F5309FB90000E12270E1225591225E6248F
:20056C001FF582E43450F583E020E20302069890000C12270EE4F0A3F07C007D0A90000C8B
:20058C0012270EE0FAA3E0FB12275990000E12270E1225591225E6FD3395E0FCED2BFDECEA
:2005AC003AFCED24D0FDEC34FFFC90000C12270EECF0A3EDF090000E12270EE0FCA3E02459
:2005CC0001FDEC3400FCEDF01227FCECF090000E12270E1225591225E6241FF582E4345053
:2005EC00F583E030E2030205850206EF90000A12270E1225591225AAED4C900012602A1236
:20060C00270EE0C0E090000A12270E1225591225AAEDFB2401FDECFA3400FC1224598A830B
:20062C008B82D0E01226B0801612270EE0FD90000A12270E122559A3A312256E1223DB9053
:20064C00000612270EE0FCA3E02401FDEC3400FCEDF01227FCECF00217BD430908801243B7
:20066C000901800D4309028008430808800343090490000E12270EE0FCA3E02401FDEC3455
:20068C0000FCEDF01227FCECF002051A90000E12270E12255912262CBD2A0280030206EF07
:2006AC0090001312270E1225591225AAEDFB2402FDECFA3400FC1224598A838B821225AA28
:2006CC0090000C12270EECF0A3EDF090000E12270EE0FCA3E02401FDEC3400FCEDF0122737
:2006EC00FCECF090000E12270E12255912262CBD2E0280030207D190000E12270EE0FCA38F
:20070C00E02401FDEC3400FCEDF01227FCECF08C838D8212262CBD2A0280030207689000D2
:20072C001312270E1225591225AAEDFB2402FDECFA3400FC1224598A838B821225AA8C0AA1
:20074C008D0B90000E12270EE0FCA3E02401FDEC3400FCEDF01227FCECF0806EE4F50AF5BF
:20076C000B80447C007D0AAA0AAB0B12275990000E12270E1225591225E6FD3395E0FCED7F
:20078C002BFDEC3AFCED24D0F50BEC34FFF50A90000E12270EE0FCA3E02401FDEC3400FC82
:2007AC00EDF01227FCECF090000E12270E1225591225E6241FF582E43450F583E030E2031E
:2007CC0002076F8005E4F50AF50B90000E12270EE0FCA3E0FB2401FDECFA3400FCEDF012C7
:2007EC0027FCECF08A838B8212262C90001212270EEDF070030217EB24BB605324ED70031D
:20080C000208CB24F57003020C4614605414603F14603C14603924FE604724FD602224FDB2
:20082C00603C1470030208CB24FD70030208D324FE7003020C9624FD70030208CE020C721E
:20084C0090000212270E7451F0A3746C0208FD90000212270E7451F0A374590208FD430923
:20086C0040E50954C09000136003020C9C12270E1225591225AAEDFB2402FDECFA3400FCA1
:20088C001224598A838B821225AA90000212270EECF0A3EDF090000212270EE0FCA3E0FD58
:2008AC00EC20E703020CC443090390000212270EE0FCA3E0FDE4C39DFDE49CFC020CB94319
:2008CC000920430980809A90001312270E1225591225AAEDFB2402FDECFA3400FC122459F2
:2008EC008A838B821225AA90000212270EECF0A3EDF090000212270EE0FDA3E04D700D9029
:20090C00000212270E7451F0A37452F090000412270EE4F0A3801790000412270EE0FCA331
:20092C00E02401FDEC3400FCEDF01227FCECF090000212270EE0FCA3E0FD90000412272974
:20094C00EB2DF582EA3CF5831225E670CAE50B450A6029900004122739ECB50A0280030207
:20096C000979EDB50B028003020979800F400D90000412270EE50AF0A3E50BF090000C126C
:20098C00270EE0FCA3E0FD90000412270EE0B5040280030209C1A3E0B5050280030209C167
:2009AC0090000C12270EE4F0A3F0E50930E303020B83020A7D50E990000412270EE0FAA333
:2009CC00E0FB90000C12270EE0FCA3E0C39BFDEC9AFCEDF01227FCEC80CF90000A12270EE3
:2009EC001225591225AAED4C604F90000812270EE0F508A3E0F5097D2090000A12270E12C5
:200A0C00255912258CEB2401FBEA3400FA122447EB24FFFBEA34FFFA8A838B8212268C905B
:200A2C00000612270EE0FCA3E02401FDEC3400FCEDF01227FCECF080387D2090000A1227AA
:200A4C000E122559A3A312256E1223DB90000612270EE0FCA3E02401FDEC3400FCEDF01288
:200A6C0027FCECF090000812270EE0F508A3E0F50990000812270EE508F0A3E509F0900061
:200A8C000C12270EE0FCA3E0FB24FFFDECFA34FFFCEDF01227FCECF0EB4A60030209E602EF
:200AAC000B7690000A12270E1225591225AAED4C606E90000812270EE0F508A3E0F5099083
:200ACC00000212270EE0FCA3E0FB2401FDECFA3400FCEDF01227FCECF08A838B8212262CC3
:200AEC0090000A12270E12255912258CEB2401FBEA3400FA122447EB24FFFBEA34FFFA8A6C
:200B0C00838B8212268C90000612270EE0FCA3E02401FDEC3400FCEDF01227FCECF0805736
:200B2C0090000212270EE0FCA3E0FB2401FDECFA3400FCEDF01227FCECF08A838B821226FE
:200B4C002C90000A12270E122559A3A312256E1223DB90000612270EE0FCA3E02401FDECA7
:200B6C003400FCEDF01227FCECF090000812270EE0F508A3E0F50990000812270EE508F052
:200B8C00A3E509F090000412270EE0FCA3E0FB24FFFDECFA34FFFCEDF01227FCECF0EB4A3B
:200BAC006003020AAE90000812270EE0FCA3E0FD540870030217BD806090000A12270E1259
:200BCC0025591225AAED4C7D2090000A602512270E12255912258CEB2401FBEA3400FA12E6
:200BEC002447EB24FFFBEA34FFFA8A838B8212268C800E12270E122559A3A312256E1223FB
:200C0C00DB90000612270EE0FCA3E02401FDEC3400FCEDF01227FCECF090000C12270EE0C2
:200C2C00FCA3E0FB24FFFDECFA34FFFCEDF01227FCECF0EB4A70820217BD90001312270E24
:200C4C001225591225AAEDFB2402FDECFA3400FC1224598A838B82A31225E6C0E09000124B
:200C6C0012270ED0E0F090001212270EAC83AD8290000212270EECF0A3EDF0900004122738
:200C8C000EE4F0A37401F00209594309C002086D12270E1225591225AAEDFB2402FDECFACE
:200CAC003400FC1224598A838B821225AA90000212270EECF0A3EDF0E50B450A70159000E5
:200CCC000212270EE0FDA3E04D7008050BE50B7002050AE50954C0603E24C07003020DEA29
:200CEC0024C07003020D8624C0602C90001212270EE0FD3395E0FCC3ED950B850AF063F000
:200D0C0080EC648095F09000124003020E4E12270EE50BF0020E7890001212270E74018022
:200D2C0046503C80C690001212270EE0FD3395E0FCED2DFDEC3CFCED2400F582EC3450F5FD
:200D4C0083E0FCA3E0FD90000212270EE0B504028003020D2DA3E0B505028003020D2D90E7
:200D6C00001212270EE004F090001212270EE0B405028003020D31020CF790001212270E05
:200D8C0074018047503D020CF790001212270EE0FD3395E0FCED2DFDEC3CFCED240AF58242
:200DAC00EC3450F583E0FCA3E0FD90000212270EE0B504028003020D90A3E0B5050280038B
:200DCC00020D9090001212270EE004F090001212270EE0B404028003020D95020CF790006C
:200DEC001212270E74018047503D020CF790001212270EE0FD3395E0FCED2DFDEC3CFCED2E
:200E0C002412F582EC3450F583E0FCA3E0FD90000212270EE0B504028003020DF4A3E0B5A3
:200E2C0005028003020DF490001212270EE004F090001212270EE0B406028003020DF9024A
:200E4C000CF712270EE0FD3395E0FCC3E50B9D8CF063F080E50A648095F0501090001212B0
:200E6C00270EE0FD3395E0FC8C0A8D0B90000C12270EE0FDA3E04D601FE509540390000C92
:200E8C00601912270EE0FCA3E0C39401FDEC9400FCEDF01227FCECF090000C12270EE0FCA9
:200EAC00A3E0FDC3E50B9D8CF063F080E50A648095F090000C501712270EE0FCA3E0C395AE
:200ECC000BFDEC950AFCEDF01227FCEC800612270EE4F0A3F0AC08AD095304085305C4BDA3
:200EEC0040028003020F17BC08028003020F1790000C12270EE0FDA3E04D605E90000C128C
:200F0C00270EE0FCA3E0C39401803BAC08AD095304085305C0BD80028003020F66BC08023E
:200F2C008003020F6690000C12270EE0FCA3E0FD24FDEC6480347F90000C501712270EE09E
:200F4C00FCA3E0C39402FDEC9400FCEDF01227FCEC800612270EE4F0A3F090001012270E1B
:200F6C00E50AF0A3E50BF0E50990000820E2030211B612270EE508F0A3E509F020E1030204
:200F8C000FCD90000A12270E1225591225AAED4C900008601612270EE0FCA3E0FD54017068
:200FAC00057B2B0210BA7B2D0210BA12270EE0FCA3E0FD540170057B2B0210F47B2D021067
:200FCC00F490000812270EE0FCA3E0FD5401603E90000A12270E1225591225AAED4C7D20BB
:200FEC0090000A70030210F912270E12255912258CEB2401FBEA3400FA122447EB24FFFB8A
:20100C00EA34FFFA8A838B8212268C02110790000812270EE05408FCA3E054C0FDBD8002CB
:20102C00800302111FBC0802800302111F90000A12270E1225591225AAED4C7D3090000AA2
:20104C00602512270E12255912258CEB2401FBEA3400FA122447EB24FFFBEA34FFFA8A8398
:20106C008B8212268C800E12270E122559A3A312256E1223DB90000612270EE0FCA3E024D3
:20108C0001FDEC3400FCEDF01227FCECF090000A12270E1225591225AAED4C900008603A7F
:2010AC0012270EE0FCA3E0FD5420702A7B7890000A12270E1225591225AAED2401FDEC34FF
:2010CC0000FC122459ED24FFFDEC34FFFC8C838D8212267480257B5880D412270EE0FCA3F5
:2010EC00E0FD542070777B78AD0390000A12270E122559A3A312256E1223DB9000061227CE
:20110C000EE0FCA3E02401FDEC3400FCEDF01227FCECF090000C12270EE0FDA3E04D700327
:20112C0002151990000A12270E1225591225AAED4C7D3090000A602912270E12255912250A
:20114C008CEB2401FBEA3400FA122447EB24FFFBEA34FFFA8A838B8212268C80127B588074
:20116C008712270E122559A3A312256E1223DB90000612270EE0FCA3E02401FDEC3400FC90
:20118C00EDF01227FCECF090000C12270EE0FCA3E0C39401FDEC9400FCEDF01227FCECF054
:2011AC00ED4C600302112F02151912270EE508F0A3E509F090000C12270EE0FDA3E04D7070
:2011CC0003021255E50930E30302125590000A12270E1225591225AAED4C7D2090000A6008
:2011EC002512270E12255912258CEB2401FBEA3400FA122447EB24FFFBEA34FFFA8A838BCC
:20120C008212268C800E12270E122559A3A312256E1223DB90000612270EE0FCA3E02401BB
:20122C00FDEC3400FCEDF01227FCECF090000C12270EE0FCA3E0C39401FDEC9400FCEDF0AB
:20124C001227FCECF0ED4C708390000812270EE0FCA3E0FD5402700302135290000A122707
:20126C000E1225591225AAED4C900008603A12270EE0FCA3E0FD5401702A7B2B90000A1294
:20128C00270E1225591225AAED2401FDEC3400FC122459ED24FFFDEC34FFFC8C838D82128A
:2012AC00267480287B2D80D412270EE0FCA3E0FD5401600302134D7B2BAD0390000A1227FE
:2012CC000E122559A3A312256E1223DB90000612270EE0FCA3E02401FDEC3400FCEDF01200
:2012EC0027FCECF090000812270EE05408FCA3E054C0FDBD4002800302139FBC08028003B9
:20130C0002139F90000A12270E1225591225AAED4C7D3090000A70030214F312270E122541
:20132C005912258CEB2401FBEA3400FA122447EB24FFFBEA34FFFA8A838B8212268C0215D0
:20134C00017B2D0212C590000812270EE0FCA3E0FD5401608F90000A12270E1225591225D8
:20136C00AAED4C7D2090000A70030212CA12270E12255912258CEB2401FBEA3400FA122403
:20138C0047EB24FFFBEA34FFFA8A838B8212268C0212D890000812270EE05408FCA3E05422
:2013AC00C0FDBD80028003021519BC0802800302151990000A12270E1225591225AAED4C6E
:2013CC007D3090000A602512270E12255912258CEB2401FBEA3400FA122447EB24FFFBEA08
:2013EC0034FFFA8A838B8212268C800E12270E122559A3A312256E1223DB90000612270E99
:20140C00E0FCA3E02401FDEC3400FCEDF01227FCECF090000A12270E1225591225AAED4CAA
:20142C00900008603B12270EE0FCA3E0FD5420702B7B7890000A12270E1225591225AAED89
:20144C002401FDEC3400FC122459ED24FFFDEC34FFFC8C838D821226740215017B5880D383
:20146C0012270EE0FCA3E0FD542070067B78AD0380727B5880F890000A12270E1225591270
:20148C0025AAED4C605C90000812270EE0F508A3E0F50990001012270EE0F50AA3E0F50BF6
:2014AC007D3090000A12270E12255912258CEB2401FBEA3400FA122447EB24FFFBEA34FF79
:2014CC00FA8A838B8212268C90000612270EE0FCA3E02401FDEC3400FCEDF01227FCECF0C0
:2014EC0080457D3090000A12270E122559A3A312256E1223DB90000612270EE0FCA3E024A2
:20150C0001FDEC3400FCEDF01227FCECF090000812270EE0F508A3E0F50990001012270E93
:20152C00E0F50AA3E0F50B90000812270EE508F0A3E509F090001012270EE50AF0A3E50BA7
:20154C00F090001212270EE0FD3395E0FCC3ED950B850AF063F080EC648095F050030214C5
:20156C00820216FEE50954C0601224C070030216A024C0700302165124C0703CE50B250BD4
:20158C00FDE50A350AFCED2400F582EC3450F583E0FCA3E0FD90000212270EE0FAA3E0FB1B
:2015AC001223757C007D0A122381EB2430C0E090001212270ED0E0F090000812270EE50888
:2015CC00F0A3E509F090001012270EE50AF0A3E50BF090000A12270E1225591225AAED4CBA
:2015EC0070030216CD90000812270EE0F508A3E0F50990001012270EE0F50AA3E0F50B9071
:20160C00001212270EE0C0E090000A12270E1225591225AAEDFB2401FDECFA3400FC12243D
:20162C00598A838B82D0E01226B090000612270EE0FCA3E02401FDEC3400FCEDF01227FC07
:20164C00ECF0021718E50B250BFDE50A350AFCED240AF582EC3450F583E0FCA3E0FD9000C4
:20166C000212270EE0FAA3E0FB122375EB540FFDEA5400FCE50930E50302169A7A517B3060
:20168C00EB2DF582EA3CF5831225E60215B97A517B4180ECE50B250BFDE50A350AFCED24D9
:2016AC0012F582EC3450F583E0FCA3E0FD90000212270EE0FAA3E0FB122375EB5407021519
:2016CC00B790001212270EE0FD90000A12270E122559A3A312256E1223DB90000612270E38
:2016EC00E0FCA3E02401FDEC3400FCEDF01227FCECF090000812270EE0F508A3E0F5099086
:20170C00001012270EE0F50AA3E0F50BAD0AE50B150B7002150A4D6003021570E50920E384
:20172C00030217BD90000C12270EE0FDA3E04D70030217BD90000A12270E1225591225AA99
:20174C00ED4C7D2090000A602512270E12255912258CEB2401FBEA3400FA122447EB24FF40
:20176C00FBEA34FFFA8A838B8212268C800E12270E122559A3A312256E1223DB9000061265
:20178C00270EE0FCA3E02401FDEC3400FCEDF01227FCECF090000C12270EE0FCA3E0C394E4
:2017AC0001FDEC9400FCEDF01227FCECF0ED4C708390000E12270EE0FCA3E0FB2401FDEC3C
:2017CC00FA3400FCEDF01227FCECF08A838B8212262C90001212270EEDF060030204FD90AB
:1617EC00000612270EE0FAA3E0FB1226F9C001C00074110226BB28
:202939003031323334353637383961626364656600303132333435363738394142434445C0
:202959004600286E756C6C2900286E6F6E2D666C6F6174207072696E74662900286E6F6E07
:0E2979002D6C6F6E67207072696E7466290097
:2018020074FC1226BBD000D0011226E190000412270EECF0A3EDF090000612270EAC83E581
:20182200822402FDEC3400FC90000212270EECF0A3EDF090000212270EAC83AD821224DD66
:2018420090000812270EE0FAA3E0FB90000612270EE0FCA3E0FD121A2575E0021226BB1269
:2018620026F9C001C00074040226BB90518DE0FDA3E04D600E90518EE024FFF090518DE032
:2018820034FFF090518CE0700B90518EE0C3949190518BF022D000D0011226E190518CE09F
:2018A20090518D602FE0FDA3E04D602490518D1225591225E6601990518EE0FD2401F09073
:2018C200518DE0FC3400F08C838D8212261480577B008053E0FDA3E04D600B90518D1225DC
:2018E200591225E6701C7C517D9112202F7A517B7E7C517D911223E190518D7451F0A374B9
:2019020091F090518D1225591225E6F990518EE02401F090518DE03400F090518EE0C394B4
:201922009190518BF0AB011226F9C001C0002274FE1226BBD000D0011226E190000312274D
:201942000EEBF090000212270EEDF090000212270EE0241FF582E43450F583E09000022001
:20196200E20302198512270EE024D0F090000312270EE0FD90000212270EE0C39D40517BF9
:20198200FF805512270EE0241FF582E43450F583E090000220E0030219B512270EE0FD7CCB
:2019A20000122421EBC0E090000212270ED0E0F090000212270EE0241FF582E43450F58377
:2019C200E0540360BA90000212270EE024A9809B90000212270EE0FB1226F9C001C0007439
:2019E200020226BB74FF1226BBD000D0011226E112189790000212270EEBF0241FF582E4CD
:201A02003450F583E030E3030219F290000212270EE0600312186D1226F9C001C0007401EB
:201A22000226BB74ED1226BBD000D0011226E190000612270EEAF0A3EBF090000A12270E9D
:201A4200ECF0A3EDF090000A12270EE0FDA3E04D6013740190518CF090000A12270EE0FC98
:201A6200A3E0FD8010E490518CF090518BE02491FDE43451FC90518DECF0A3EDF090000D49
:201A820012270EE4F090000612270EE0FCA3E0FB2401FDECFA3400FCEDF01227FCECF08A42
:201AA200838B821225E6F97003021C2E90001212270E7402F0E9241FF582E43450F583E00D
:201AC20020E303021ACD1219E680BA90001112270EE9F0B925028003021FE690000E1227C8
:201AE2000EE4F090000F12270EE4F090000612270EE0FCA3E0FB2401FDECFA3400FCEDF0FC
:201B02001227FCECF08A838B821225E6F5087003021C2E24D6607324D27003021C4424F50E
:201B22007003021D59147003021BAD24FC607114607924FD605F24FD7003021C3924FC702E
:201B420003021C4F24FE606324FD7003021C4490001112270EE508F0241FF582E43450F55C
:201B620083E020E203021E3990000612270EE0FCA3E024FFFDEC34FFFC122222EBC0E090BA
:201B8200000F12270ED0E0021E1990000E12270EE004021AEC90001212270E7404021AECCA
:201BA20090001212270E7402021AEC90001012270E740AF01219E67A007B007C007D0090D8
:201BC200000212270EEAF0A3EBF0A3ECF0A3EDF090001312270EE4F0121897EBF990000C64
:201BE20012270EE9F0B92D028003021C0790001312270EE004F0121897EBC0E090000C127B
:201C0200270ED0E0F090001012270EE0FB90000C12270EE0FD121931BBFF028003021E723E
:201C220090000C12270EE0600312186D90000D12270EE0FB02202190001012270E7408027E
:201C42001BB590001012270E7410021BB51219E690000E12270EE0702B90001512270E1206
:201C620025591225AAEDFB2402FDECFA3400FC1224598A838B821225AA90000812270EEC8D
:201C8200F0A3EDF012189790000C12270EEBF07003021DA390000C12270EE0021D3A900072
:201CA2000612270E1225591225E6FB3395E0FAAD017C00EDB503028003021D00E4B502027B
:201CC2008003021D0090000612270EE0FCA3E02401FDEC3400FCEDF01227FCECF0E50860AB
:201CE20003021A8790000D12270EE004F07D0090000812270E12255912268C021A87E50844
:201D02007026AD0190000812270E12255912268C90000812270EE0FCA3E02401FDEC3400CA
:201D2200FCEDF01227FCECF090000F12270EE024FFF060A9121897EBF990000E12270EE06B
:201D4200F508E96098241FF582E43450F583E020E303021CA0808690000E12270EE07034F6
:201D620090000D12270EE004F090001512270E1225591225AAEDFB2402FDECFA3400FC1219
:201D820024598A838B821225AA90000812270EECF0A3EDF012189790000C12270EEBF0709F
:201DA2001590000D12270EE0F9E9600302201F7AFF7BFF02202390000E12270EE0702F9096
:201DC200000C12270EE0C0E090000812270E122559D0E01226B090000812270EE0FCA3E0E9
:201DE2002401FDEC3400FCEDF01227FCECF090000F12270EE014F06480247F4097021A87EA
:201E020090000612270EE0FCA3E02401FDEC3400FCEDF01227FCECF090000612270E122544
:201E2200591225E6241FF582E43450F583E030E203021E02021AED90001112270EE0FDC0EB
:201E42000512189790000C12270EEBF0D005B505028003021E5B021A8790000D12270EE006
:201E6200F990000C12270EE0600302201C021DAB90001012270EE0FB90000C12270EE0FDB7
:201E8200121931EBC0E090001412270ED0E0F090000212270E12253790001012270EE0FDC3
:201EA200E4FCFBFA12277790001412270EE0F9890BE4F50AF509F508ED250BFDEC350AFC24
:201EC200EB3509FBEA3508FA90000212270EEAF0A3EBF0A3ECF0A3EDF090000F12270EE0C5
:201EE20024FFF060201218978B0590000C12270EEDF090001012270EE0FB121931BBFF0262
:201F02008003021E7290000C12270EE0601E90001012270EE0FB90000C12270EE0FD1219BC
:201F220031BBFF028003021F2E12186D90000212270E1225118A088B098C0A8D0B90001232
:201F420012270EE0F990001312270EE06013AA08AB09AC0AAD0B12249B8A088B098C0A8D34
:201F62000B90000E12270EE06003021A8790000D12270EE004F0B904028003021FAE900030
:201F82001512270E1225591225AAEDFB2402FDECFA3400FC1224598A838B82122559AA0866
:201FA200AB09AC0AAD0B12247D021A87B902028003021FB6AC0AAD0B90001512270E1225FF
:201FC2005912258CEB2402FBEA3400FA122447EB24FEFBEA34FFFA8A838B82122559122443
:201FE20059021A8790001112270EE0FDC00512189790000C12270EEBF0D005B505028003C6
:20200200022008021A8790000D12270EE0F990000C12270EE07003021DAB12186DAB017A77
:0D202200001226F9C001C00074130226BB95
:022987000A0044
:20202F0074FA1226BBD000D0011226E190000412270EECF0A3EDF090000412270EE0FCA3E5
:20204F00E0FD90000212270EECF0A3EDF0122207EBFD3395E0FC90000612270EECF0A3ED4F
:20206F00F0EC700302215B90000612270EE0A3E0C0E090000212270E122559D0E01226B0A3
:20208F0090000212270EE0FCA3E02401FDEC3400804190000212270EE0FCA3E0FD9000042D
:2020AF0012270EE0B5040280030220C7A3E0B5050280030220C780957D201221937D081209
:2020CF00219390000212270EE0FCA3E0C39401FDEC9400FCEDF01227FCEC02205B40030274
:2020EF00205C7D081221937D201221937D0812219390000212270EE0FCA3E0C39401FDECE3
:20210F009400FCEDF01227FCECF090000212270EE0FCA3E0FD90000412270EE0B504028007
:20212F00030220ECA3E0B5050280030220EC02205C7D0090000212270E12255912268C90F7
:20214F00000412270EE0FAA3E0FB8017ED24F870030220A124FE60D924FD60D524F860AA20
:20216F000220761226F9C001C00074060226BB758920758BFD758DFDD28E759852740190CB
:20218F005190F022D000D0011226E1905190E0700312217EBD0A0280030221B6209903022B
:2021AF0021ABC29975990D2099030221B6C2998D991226F9C001C00022D000D0011226E12A
:2021CF00905190E0700312217E2098030221D8C298AD99BD0D0280030221EC800AAD99BD3A
:2021EF008D0280030221FA7B0A8005E599547FFB1226F9C001C00022D000D0011226E112AB
:20220F0021C8EBFCAD04122193AB041226F9C001C0002274FE1226BB90000012270EECF0CD
:20222F00A3ED802B90000012270E12255912262CBD0902800302227590000012270EE0FCF2
:20224F00A3E02401FDEC3400FCEDF01227FCECF090000012270E12255912262CBD20028096
:20226F000302223380D2E4F508F509790090000012270E12255912262CBD2D0280030222ED
:20228F009309804290000012270E12255912262CBD2B0280030222ED802C7C007D0AAA0827
:2022AF00AB0912275990000012270E1225591225E6FD3395E0FCED2BFDEC3AFCED24D0F597
:2022CF0009EC34FFF50890000012270EE0FCA3E02401FDEC3400FCEDF01227FCECF09000D8
:2022EF000012270E1225591225E6241FF582E43450F583E030E2030222A9E9600BE4C395EF
:20230F0009FBE49508FA8004AA08AB0974020226BBE4F5F0F8F9EA4B6043EC4D701322EA92
:20232F00C39C40137004EB9D400DEDC333FDEC33FC05F0EC30E7E8EAC39C40067007EB9D2A
:20234F005003C38008C3EB9DFBEA9CFAD3E933F9E833F8ECC313FCED13FDD5F0DA8B058A9B
:20236F00048802890322C000C001122320D001D00022C000C001122320D001D0008C028DE7
:20238F000322EA30E707E4C39BFBE49AFAEC30E707E4C39DFDE49CFC22C000C001EC6AC0CC
:2023AF00E01223911223208C028D03800EC000C001EC6AC0E0122391122320D0E030E70707
:2023CF00E4C39BFBE49AFAD001D0002289828883E4738C088D0980080509E50970020508DC
:2023EF008508838509821225E670ED8A838B821225FCA3AA83AB82E509F5822401F509E57D
:20240F0008F5833400F50812265CE970DEAA04AB0522ED64802425400AED6480243F5003C6
:06242F00430520AB05226D
:20282700002020202020202020202828282828202020202020202020202020202020202089
:20284700208810101010101010101010101010101004040404040404040404101010101061
:20286700101041414141414101010101010101010101010101010101010101011010101057
:2028870010104242424242420202020202020202020202020202020202020202101010101D
:2028A7002000000000000000000000000000000000000000000000000000000000000000F1
:2028C7000000000000000000000000000000000000000000000000000000000000000000F1
:2028E7000000000000000000000000000000000000000000000000000000000000000000D1
:202907000000000000000000000000000000000000000000000000000000000000000000B0
:0129270000AF
:20243500E5836006E8F0A3E9F022E8A882F608E9F622E5836006EAF0A3EBF022EAA882F6E0
:2024550008EBF622E5836006ECF0A3EDF022ECA882F608EDF622E5836006EEF0A3EFF022A7
:20247500EEA882F608EFF622E583600CEAF0A3EBF0A3ECF0A3EDF022A882EAF608EBF608E2
:20249500ECF608EDF622E4C39DFDE49CFCE49BFBE49AFA22C0A8C2AFEF24FEFFEE34FFFE5F
:2024B500D0A88E838F82E500F0A3E501F022C0A8C2AFEF24FEFFEE34FFFED0A88E838F825B
:2024D500E502F0A3E503F022C0A8C2AFEF24FEFFEE34FFFED0A88E838F82E504F0A3E5056B
:2024F500F022C0A8C2AFEF24FEFFEE34FFFED0A88E838F82E506F0A3E507F022E5836014BB
:20251500C082C083E0FAA3E0FBA3E0FCA3E0FDD083D08222A882E6FA08E6FB08E6FC08E638
:20253500FD22E5836010E0F508A3E0F509A3E0F50AA3E0F50B22A882860808860908860A23
:2025550008860B22E5837008A882868308868222E0F8A3E0F582888322E583600EC082C08F
:2025750083E0F8A3E0F9D083D08222A882E6C0E008E6F9D0E0F822E583600EC082C083E00C
:20259500FAA3E0FBD083D08222A882E6C0E008E6FBD0E0FA22E583600EC082C083E0FCA3A8
:2025B500E0FDD083D08222A882E6C0E008E6FDD0E0FC22E583600EC082C083E0FEA3E0FF3E
:2025D500D083D08222A882E6C0E008E6FFD0E0FE22E5836002E022A882E622E5836003E009
:2025F500F822A882E6F822E5836003E0F922A882E6F922E5836003E0FA22A882E6FA22E5B9
:20261500836003E0FB22A882E6FB22E5836003E0FC22A882E6FC22E5836003E0FD22A882AA
:20263500E6FD22E5836003E0FE22A882E6FE22E5836003E0FF22A882E6FF22E5836003E8D5
:20265500F022A882E8F622E5836003E9F022A882E9F622E5836003EAF022A882EAF622E560
:20267500836003EBF022A882EBF622E5836003ECF022A882ECF622E5836003EDF022A8824A
:20269500EDF622E5836003EEF022A882EEF622E5836003EFF022A882EFF622A883B8000441
:2026B500A882F622F022C0A8C2AFC0E02FFFD0E030E70474FF8001E43EFED0A822C0A8C267
:2026D500AFEF2582FFEE3583FED0A822C0A8C2AFEF24FEF582FFEE34FFFED0A8F583E8F01C
:2026F500A3E9F0228F828E83E0F8A3E0F9A3C0A8C2AFAE83AF82D0A822EF2582F582EE3509
:2027150083F58322EF2582F582EE3583F583E0F8A3E0F922EF2582F582EE3583F583E0FAE1
:20273500A3E0FB22EF2582F582EE3583F583E0FCA3E0FD22EF2582F582EE3583F583E0FE32
:20275500A3E0FF22C000C001ED8BF0A4F8A9F0ED8AF0A429F9EC8BF0A429FAE8FBD001D0C3
:202775000022ED850BF0A4F50F85F00EED850AF0A4250EF50EE5F03400F50DED8509F0A42A
:20279500250DF50DE5F03400F50CED8508F0A4250CF50CEC850BF0A4250EF50EE5F0350D49
:2027B500F50DE50C3400F50CEC850AF0A4250DF50DE5F0350CF50CEC8509F0A4250CF50C42
:2027D500EB850BF0A4250DF50DE5F0350CF50CEB850AF0A4250CF50CEA850BF0A4250CFA11
:1427F500AB0DAC0EAD0F22E58224FFF582E58334FFF583224A
:00000001FF
